{
  "contractName": "VetRelief",
  "abi": [
    {
      "anonymous": false,
      "inputs": [
        {
          "indexed": false,
          "internalType": "uint256",
          "name": "id",
          "type": "uint256"
        },
        {
          "indexed": false,
          "internalType": "uint256",
          "name": "shelterId",
          "type": "uint256"
        },
        {
          "indexed": false,
          "internalType": "address",
          "name": "donor",
          "type": "address"
        },
        {
          "indexed": false,
          "internalType": "uint256",
          "name": "amount",
          "type": "uint256"
        },
        {
          "indexed": false,
          "internalType": "string",
          "name": "receipt",
          "type": "string"
        }
      ],
      "name": "DonationMade",
      "type": "event"
    },
    {
      "anonymous": false,
      "inputs": [
        {
          "indexed": false,
          "internalType": "uint256",
          "name": "id",
          "type": "uint256"
        },
        {
          "indexed": false,
          "internalType": "string",
          "name": "name",
          "type": "string"
        },
        {
          "indexed": false,
          "internalType": "address",
          "name": "wallet",
          "type": "address"
        }
      ],
      "name": "ShelterAdded",
      "type": "event"
    },
    {
      "inputs": [],
      "name": "donationCount",
      "outputs": [
        {
          "internalType": "uint256",
          "name": "",
          "type": "uint256"
        }
      ],
      "stateMutability": "view",
      "type": "function",
      "constant": true
    },
    {
      "inputs": [
        {
          "internalType": "uint256",
          "name": "",
          "type": "uint256"
        }
      ],
      "name": "donations",
      "outputs": [
        {
          "internalType": "uint256",
          "name": "id",
          "type": "uint256"
        },
        {
          "internalType": "uint256",
          "name": "shelterId",
          "type": "uint256"
        },
        {
          "internalType": "address",
          "name": "donor",
          "type": "address"
        },
        {
          "internalType": "uint256",
          "name": "amount",
          "type": "uint256"
        },
        {
          "internalType": "string",
          "name": "receipt",
          "type": "string"
        }
      ],
      "stateMutability": "view",
      "type": "function",
      "constant": true
    },
    {
      "inputs": [],
      "name": "shelterCount",
      "outputs": [
        {
          "internalType": "uint256",
          "name": "",
          "type": "uint256"
        }
      ],
      "stateMutability": "view",
      "type": "function",
      "constant": true
    },
    {
      "inputs": [
        {
          "internalType": "uint256",
          "name": "",
          "type": "uint256"
        }
      ],
      "name": "shelters",
      "outputs": [
        {
          "internalType": "uint256",
          "name": "id",
          "type": "uint256"
        },
        {
          "internalType": "string",
          "name": "name",
          "type": "string"
        },
        {
          "internalType": "address",
          "name": "wallet",
          "type": "address"
        },
        {
          "internalType": "bool",
          "name": "verified",
          "type": "bool"
        }
      ],
      "stateMutability": "view",
      "type": "function",
      "constant": true
    },
    {
      "inputs": [
        {
          "internalType": "string",
          "name": "_name",
          "type": "string"
        },
        {
          "internalType": "address",
          "name": "_wallet",
          "type": "address"
        }
      ],
      "name": "addShelter",
      "outputs": [],
      "stateMutability": "nonpayable",
      "type": "function"
    },
    {
      "inputs": [
        {
          "internalType": "uint256",
          "name": "_shelterId",
          "type": "uint256"
        }
      ],
      "name": "donate",
      "outputs": [],
      "stateMutability": "payable",
      "type": "function",
      "payable": true
    }
  ],
  "bytecode": "0x608060405234801561000f575f80fd5b50610ec18061001d5f395ff3fe608060405260043610610054575f3560e01c80632abfab4d146100585780633e13f84b146100825780637044cd7e146100aa578063f14faf6f146100e9578063f8626af814610105578063fc28a01914610145575b5f80fd5b348015610063575f80fd5b5061006c61016f565b604051610079919061067d565b60405180910390f35b34801561008d575f80fd5b506100a860048036038101906100a3919061083d565b610175565b005b3480156100b5575f80fd5b506100d060048036038101906100cb91906108c1565b61029f565b6040516100e0949392919061098f565b60405180910390f35b61010360048036038101906100fe91906108c1565b61037d565b005b348015610110575f80fd5b5061012b600480360381019061012691906108c1565b610589565b60405161013c9594939291906109d9565b60405180910390f35b348015610150575f80fd5b50610159610660565b604051610166919061067d565b60405180910390f35b60015481565b5f8081548092919061018690610a5e565b919050555060405180608001604052805f5481526020018381526020018273ffffffffffffffffffffffffffffffffffffffff1681526020016001151581525060025f805481526020019081526020015f205f820151815f015560208201518160010190816101f59190610c9f565b506040820151816002015f6101000a81548173ffffffffffffffffffffffffffffffffffffffff021916908373ffffffffffffffffffffffffffffffffffffffff16021790555060608201518160020160146101000a81548160ff0219169083151502179055509050507fda3f92ede90220cba3150d3f3e13ba09c9cd4514ce95eeb8fb3d2da9cd676bbb5f54838360405161029393929190610d6e565b60405180910390a15050565b6002602052805f5260405f205f91509050805f0154908060010180546102c490610ad2565b80601f01602080910402602001604051908101604052809291908181526020018280546102f090610ad2565b801561033b5780601f106103125761010080835404028352916020019161033b565b820191905f5260205f20905b81548152906001019060200180831161031e57829003601f168201915b505050505090806002015f9054906101000a900473ffffffffffffffffffffffffffffffffffffffff16908060020160149054906101000a900460ff16905084565b60025f8281526020019081526020015f2060020160149054906101000a900460ff166103de576040517f08c379a00000000000000000000000000000000000000000000000000000000081526004016103d590610df4565b60405180910390fd5b60015f8154809291906103f090610a5e565b91905055506040518060a0016040528060015481526020018281526020013373ffffffffffffffffffffffffffffffffffffffff16815260200134815260200160405180602001604052805f81525081525060035f60015481526020019081526020015f205f820151815f0155602082015181600101556040820151816002015f6101000a81548173ffffffffffffffffffffffffffffffffffffffff021916908373ffffffffffffffffffffffffffffffffffffffff1602179055506060820151816003015560808201518160040190816104cc9190610c9f565b509050507f8ecfb7d97aff2bda1aa713d3949633f6110b38b893a6fa6b41dc2e37189b10e06001548233346040516105079493929190610e35565b60405180910390a160025f8281526020019081526020015f206002015f9054906101000a900473ffffffffffffffffffffffffffffffffffffffff1673ffffffffffffffffffffffffffffffffffffffff166108fc3490811502906040515f60405180830381858888f19350505050158015610585573d5f803e3d5ffd5b5050565b6003602052805f5260405f205f91509050805f015490806001015490806002015f9054906101000a900473ffffffffffffffffffffffffffffffffffffffff16908060030154908060040180546105df90610ad2565b80601f016020809104026020016040519081016040528092919081815260200182805461060b90610ad2565b80156106565780601f1061062d57610100808354040283529160200191610656565b820191905f5260205f20905b81548152906001019060200180831161063957829003601f168201915b5050505050905085565b5f5481565b5f819050919050565b61067781610665565b82525050565b5f6020820190506106905f83018461066e565b92915050565b5f604051905090565b5f80fd5b5f80fd5b5f80fd5b5f80fd5b5f601f19601f8301169050919050565b7f4e487b71000000000000000000000000000000000000000000000000000000005f52604160045260245ffd5b6106f5826106af565b810181811067ffffffffffffffff82111715610714576107136106bf565b5b80604052505050565b5f610726610696565b905061073282826106ec565b919050565b5f67ffffffffffffffff821115610751576107506106bf565b5b61075a826106af565b9050602081019050919050565b828183375f83830152505050565b5f61078761078284610737565b61071d565b9050828152602081018484840111156107a3576107a26106ab565b5b6107ae848285610767565b509392505050565b5f82601f8301126107ca576107c96106a7565b5b81356107da848260208601610775565b91505092915050565b5f73ffffffffffffffffffffffffffffffffffffffff82169050919050565b5f61080c826107e3565b9050919050565b61081c81610802565b8114610826575f80fd5b50565b5f8135905061083781610813565b92915050565b5f80604083850312156108535761085261069f565b5b5f83013567ffffffffffffffff8111156108705761086f6106a3565b5b61087c858286016107b6565b925050602061088d85828601610829565b9150509250929050565b6108a081610665565b81146108aa575f80fd5b50565b5f813590506108bb81610897565b92915050565b5f602082840312156108d6576108d561069f565b5b5f6108e3848285016108ad565b91505092915050565b5f81519050919050565b5f82825260208201905092915050565b5f5b83811015610923578082015181840152602081019050610908565b5f8484015250505050565b5f610938826108ec565b61094281856108f6565b9350610952818560208601610906565b61095b816106af565b840191505092915050565b61096f81610802565b82525050565b5f8115159050919050565b61098981610975565b82525050565b5f6080820190506109a25f83018761066e565b81810360208301526109b4818661092e565b90506109c36040830185610966565b6109d06060830184610980565b95945050505050565b5f60a0820190506109ec5f83018861066e565b6109f9602083018761066e565b610a066040830186610966565b610a13606083018561066e565b8181036080830152610a25818461092e565b90509695505050505050565b7f4e487b71000000000000000000000000000000000000000000000000000000005f52601160045260245ffd5b5f610a6882610665565b91507fffffffffffffffffffffffffffffffffffffffffffffffffffffffffffffffff8203610a9a57610a99610a31565b5b600182019050919050565b7f4e487b71000000000000000000000000000000000000000000000000000000005f52602260045260245ffd5b5f6002820490506001821680610ae957607f821691505b602082108103610afc57610afb610aa5565b5b50919050565b5f819050815f5260205f209050919050565b5f6020601f8301049050919050565b5f82821b905092915050565b5f60088302610b5e7fffffffffffffffffffffffffffffffffffffffffffffffffffffffffffffffff82610b23565b610b688683610b23565b95508019841693508086168417925050509392505050565b5f819050919050565b5f610ba3610b9e610b9984610665565b610b80565b610665565b9050919050565b5f819050919050565b610bbc83610b89565b610bd0610bc882610baa565b848454610b2f565b825550505050565b5f90565b610be4610bd8565b610bef818484610bb3565b505050565b5b81811015610c1257610c075f82610bdc565b600181019050610bf5565b5050565b601f821115610c5757610c2881610b02565b610c3184610b14565b81016020851015610c40578190505b610c54610c4c85610b14565b830182610bf4565b50505b505050565b5f82821c905092915050565b5f610c775f1984600802610c5c565b1980831691505092915050565b5f610c8f8383610c68565b9150826002028217905092915050565b610ca8826108ec565b67ffffffffffffffff811115610cc157610cc06106bf565b5b610ccb8254610ad2565b610cd6828285610c16565b5f60209050601f831160018114610d07575f8415610cf5578287015190505b610cff8582610c84565b865550610d66565b601f198416610d1586610b02565b5f5b82811015610d3c57848901518255600182019150602085019450602081019050610d17565b86831015610d595784890151610d55601f891682610c68565b8355505b6001600288020188555050505b505050505050565b5f606082019050610d815f83018661066e565b8181036020830152610d93818561092e565b9050610da26040830184610966565b949350505050565b7f5368656c746572206e6f742076657269666965640000000000000000000000005f82015250565b5f610dde6014836108f6565b9150610de982610daa565b602082019050919050565b5f6020820190508181035f830152610e0b81610dd2565b9050919050565b50565b5f610e205f836108f6565b9150610e2b82610e12565b5f82019050919050565b5f60a082019050610e485f83018761066e565b610e55602083018661066e565b610e626040830185610966565b610e6f606083018461066e565b8181036080830152610e8081610e15565b90509594505050505056fea264697066735822122011d8023e396b8f6b42b5498da2523811ac136866dfa31acf3f70387c961c278564736f6c63430008150033",
  "immutableReferences": {},
  "source": "// SPDX-License-Identifier: MIT\r\npragma solidity ^0.8.0;\r\n\r\ncontract VetRelief {\r\n    struct Shelter {\r\n        uint id;\r\n        string name;\r\n        address wallet;\r\n        bool verified;\r\n    }\r\n\r\n    struct Donation {\r\n        uint id;\r\n        uint shelterId;\r\n        address donor;\r\n        uint amount;\r\n        string receipt; // Transaction hash as receipt\r\n    }\r\n\r\n    uint public shelterCount;\r\n    uint public donationCount;\r\n\r\n    mapping(uint => Shelter) public shelters;\r\n    mapping(uint => Donation) public donations;\r\n\r\n    event ShelterAdded(uint id, string name, address wallet);\r\n    event DonationMade(uint id, uint shelterId, address donor, uint amount, string receipt);\r\n\r\n    function addShelter(string memory _name, address _wallet) public {\r\n        shelterCount++;\r\n        shelters[shelterCount] = Shelter(shelterCount, _name, _wallet, true);\r\n        emit ShelterAdded(shelterCount, _name, _wallet);\r\n    }\r\n\r\n    function donate(uint _shelterId) public payable {\r\n        require(shelters[_shelterId].verified, \"Shelter not verified\");\r\n        donationCount++;\r\n        donations[donationCount] = Donation(donationCount, _shelterId, msg.sender, msg.value, \"\");\r\n        emit DonationMade(donationCount, _shelterId, msg.sender, msg.value, \"\");\r\n        payable(shelters[_shelterId].wallet).transfer(msg.value);\r\n    }\r\n}\r\n",
  "sourcePath": "D:\\VetRelief\\blockchain\\contracts\\VetRelief.sol",
  "compiler": {
    "name": "solc",
    "version": "0.8.21+commit.d9974bed.Emscripten.clang"
  },
  "schemaVersion": "3.4.16",
  "updatedAt": "2025-10-12T07:38:07.791Z",
  "networkType": "ethereum",
  "devdoc": {
    "kind": "dev",
    "methods": {},
    "version": 1
  },
  "userdoc": {
    "kind": "user",
    "methods": {},
    "version": 1
  }
}